:020000040800F2
:10000000005000200D010008690100086901000886
:10001000690100086901000869010008000000008A
:10002000000000000000000000000000690100085E
:100030006901000800000000690100089D07000830
:1000400069010008690100086901000869010008E8
:1000500069010008690100086901000869010008D8
:1000600069010008690100086901000869010008C8
:1000700069010008690100086901000869010008B8
:1000800069010008690100086901000869010008A8
:100090006901000869010008690100086901000898
:1000A0006901000869010008690100086901000888
:1000B0006901000869010008690100086901000878
:1000C0006901000869010008690100086901000868
:1000D0006901000849090008690100086901000870
:0C00E000690100086901000869010008BE
:0800EC00944100000100000036
:1000F80080B500AF00F08CF800F0A2F80023184695
:1001080080BD000080B582B000AF104B7B60104B03
:100118003B6007E07A68131D7B603B68191D3960F6
:1001280012681A603B680B4A9342F3D30A4B3B6050
:1001380004E03B681A1D3A6000221A603B68074ACF
:100148009342F6D3FFF7D4FF00BFFDE76CB3000876
:10015800000000209C0800209C0800208C0C002037
:1001680080B400AF00BFFDE780B582B000AF0023C8
:100178007B6000233B600CE000F0C4FC03461A4699
:100188007B6813447B60012000F012FB3B6801335D
:100198003B603B68B3F5FA6FEEDB7B68064A82FB8F
:1001A8000312D211DB17D31A1AB2044B1A8000BFFC
:1001B8000837BD4680BD00BFD34D62109C080020A3
:1001C80080B582B000AF0346FB8000F085FEB7F92A
:1001D8000630142B03DD0B4800F06EFB0BE0B7F97B
:1001E800063013F1140F03DA074800F065FB02E04C
:1001F800064800F061FB642000F0DAFA00BF083717
:10020800BD4680BDECAA0008F8AA000804AB0008A7
:1002180080B500AF00F0A0FA00F02AFA00F0EAF882
:1002280000F0AAFBFFF7A0FF00F054FD00F084FDEA
:1002380000F090FC4FF4E13000F0D2FA00BF80BD2E
:1002480080B5A6B000AF07F18803184600F0E6FBBA
:10025800B7F994309AB21A4BB3F900309BB2D31A5B
:100268009BB2A7F89630B7F9962007F1080315490D
:10027800184600F0F1FE07F10803184600F01CFBD1
:10028800B7F996301846FFF79BFF00F04BFC00F0DB
:10029800EBFC642000F08CFA09E0FB79184600F0CA
:1002A800E3FAFB790D2B02D10A2000F0DDFAFB1DE1
:1002B800184600F0F1FA0346002BEED1C3E700BF61
:1002C8009C08002014AB000880B483B000AF7860AD
:1002D8000B46FB701346BB707B682A4A934206D1D3
:1002E800294B9B69284A43F00403936114E07B6817
:1002F800264A934206D1244B9B69234A43F00803BC
:10030800936109E07B68224A934205D11E4B9B69A1
:100318001D4A43F010039361FB78072B15D87B68BF
:100328001A68FB789B000F2101FA03F3DB431A409C
:100338007B681A607B681B68B978FA78920001FAC2
:1003480002F21A437B681A6016E07B685A68FB78E9
:10035800083B9B000F2101FA03F3DB431A407B683B
:100368005A607B685B68B978FA78083A920001FAB3
:1003780002F21A437B685A6000BF0C37BD4680BC46
:10038800704700BF0008014000100240000C014007
:100398000010014080B483B000AF78600B46FB705A
:1003A8001346BB70BB78002B05D0FB7801229A401E
:1003B8007B681A6104E0FB7801229A407B685A61E5
:1003C80000BF0C37BD4680BC704780B483B000AF17
:1003D80078600B46FB707B68DA68FB78012101FACC
:1003E80003F35A407B68DA6000BF0C37BD4680BC17
:1003F800704700BF80B500AF1F4B9B691E4A43F092
:10040800090393611C4BDB691B4A43F40013D36156
:100418001A4B5B68194A23F0020353600F22062126
:100428001748FFF751FF0F2207211548FFF74CFF28
:10043800144B1B68134A43F400431360114B1B68A9
:10044800104A23F4004313600E4B1B680D4A23F037
:10045800010313600B4B24225A600A4BB422DA6161
:10046800084B25221A62074B1B68064A43F0010312
:10047800136000BF80BD00BF0010024000000140B3
:10048800000C01400054004080B483B000AF144B0E
:100498001B68134A43F48073136042F210737B6045
:1004A80000BF0F4B5B6903F00103002B04D17B688D
:1004B8005A1E7A60002BF4D17B68002B0BD1084BB5
:1004C8001B68074A43F400431360054B1B68044A42
:1004D80023F40043136000BF0C37BD4680BC70474F
:1004E8000054004080B400AF044B1B68034A43F437
:1004F8000073136000BFBD4680BC704700540040C5
:1005080080B584B000AF03460A46FB711346BB7141
:10051800BB79012B06D1FB795B0043F00102124B3A
:100528001A6104E0FB795B000F4ADBB2136142F207
:100538001073FB6000BF0C4B5B6903F00203002BD8
:1005480004D1FB685A1EFA60002BF4D1FB68002B1B
:1005580002D1FFF7C7FF03E0034B5B69024B9B69BE
:100568001037BD4680BD00BF0054004080B485B040
:1005780000AF0346FB7142F21073FB6000BF134BE0
:100588005B6903F08003002B04D1FB685A1EFA60F4
:10059800002BF4D1FB68002B12D00C4AFB791361B5
:1005A80042F21073FB6000BF084B5B6903F0040361
:1005B800002B06D1FB685A1EFA60002BF4D100E02C
:1005C80000BF1437BD4680BC704700BF00540040D0
:1005D80080B483B000AF114B1B68104A43F48063AA
:1005E800136042F210737B6000BF0C4B5B6903F031
:1005F8004003002B04D17B685A1E7A60002BF4D18B
:100608007B68002B01D1FF2302E0044B1B69DBB29E
:1006180018460C37BD4680BC704700BF00540040E8
:1006280080B582B000AF114B1B68104A23F4806379
:100638001360FFF757FF42F210737B6000BF0B4B4C
:100648005B6903F04003002B04D17B685A1E7A6073
:10065800002BF4D17B68002B01D1FF2302E0034B70
:100668001B69DBB218460837BD4680BD0054004000
:1006780080B400AF194B1B68184A43F00403136099
:10068800174B1B68164A43F002031360154B1B688F
:10069800144A23F07F431360124B1B68114A43F03E
:1006A8003B431360104B07221A60104B40F2E732AD
:1006B8001A600F4B46F668021A600E4B11221A6038
:1006C8000D4B01221A600D4B00221A600C4B0022C0
:1006D8001A6000BFBD4680BC704700BF18100240BA
:1006E8001C10024000080140280400402C0400406F
:1006F8001804004020040040000400403404004076
:100708003804004080B485B000AF03460A46FB7148
:100718001346BB71BB79642B01D96423BB71BA79C9
:1007280013469B0013445B00FB60FB79012B03D14C
:10073800074AFB68136005E0FB79022B02D1054AE2
:10074800FB68136000BF1437BD4680BC704700BF0C
:10075800340400403804004080B400AF094B002244
:100768001A60094B41F63F721A60084B00221A6062
:10077800074B00221A60034B07221A6000BFBD46D0
:1007880080BC704710E000E014E000E018E000E0F2
:10079800A008002080B400AF044B1B680133034A53
:1007A800136000BFBD4680BC704700BFA008002092
:1007B80080B485B000AF7860084B1B68FB6000BF51
:1007C800064B1A68FB68D31A7A689A42F8D800BFB1
:1007D80000BF1437BD4680BC704700BFA00800208A
:1007E80080B582B000AF7860184800F081FB184BE4
:1007F8001B68174A43F4804343F004031360154B06
:100808001B68144A23F47F631360124B1B68114A58
:1008180043F0B00313600F4B1B680E4A43F4806328
:1008280013600D4A0D497B68B1FBF3F313600C4B61
:100838001B680B4A43F0200313600A4B42F22C0258
:100848001A6000BF0837BD4680BD00BFA40800205D
:1008580018100240040801400838014000127A00CC
:1008680004E100E00C38014080B483B000AF0346D7
:10087800FB7100BF064B1B6803F08003002BF9D007
:10088800044AFB79136000BF0C37BD4680BC704733
:10089800003801400438014080B582B000AF78606C
:1008A8007968044800F05AFB034618460837BD46E5
:1008B80080BD00BFA408002080B582B000AF78607A
:1008C80006E07B685A1C7A601B781846FFF7CCFF55
:1008D8007B681B78002BF4D100BF00BF0837BD46EA
:1008E80080BD80B584B000AF786039600023FB60BC
:1008F80009E07A68FB6813441B781846FFF7B4FFD1
:10090800FB680133FB60FA683B689A42F1D300BF89
:1009180000BF1037BD4680BD80B500AF024800F06B
:1009280043FB0346184680BDA408002080B500AFED
:10093800024800F04DFB0346184680BDA40800207D
:1009480080B582B000AF094B1B6803F02003002B71
:1009580007D0074B1B68FB71FB791946054800F067
:10096800D8FA00BF0837BD4680BD00BF0038014037
:1009780004380140A408002080B500AF00216B2096
:1009880000F012F80921192000F00EF803211A20AE
:1009980000F00AF800211B2000F006F800211C20B6
:1009A80000F002F800BF80BD80B582B000AF0346FA
:1009B8000A46FB711346BB71FFF766FD00216820EC
:1009C800FFF79EFDFB791846FFF7D0FDBB79184667
:1009D800FFF7CCFDFFF786FD00BF0837BD4680BD99
:1009E80080B584B000AF0346FB71FFF74DFD0021D1
:1009F8006820FFF785FDFB791846FFF7B7FDFFF77D
:100A080043FD01216820FFF77BFDFFF709FE034640
:100A1800FB73FB7B18461037BD4680BD80B588B098
:100A280000AF7860FFF730FD00216820FFF768FD10
:100A38003B20FFF79BFDFFF727FD01216820FFF70B
:100A48005FFD0023FB610CE0FFF7C2FD034619467A
:100A580007F10C02FB6913440A461A70FB6901335B
:100A6800FB61FB690C2BEFDDFFF7DAFD03467B76B4
:100A78003B7B1BB21B021AB27B7B1BB213431AB21D
:100A88007B681A80BB7B1BB21B021AB2FB7B1BB2B2
:100A980013431AB27B685A803B7C1BB21B021AB202
:100AA8007B7C1BB213431AB27B689A80BB7C1BB257
:100AB8001B021AB2FB7C1BB213431AB27B68DA80A2
:100AC8003B7D1BB21B021AB27B7D1BB213431AB2C9
:100AD8007B681A81BB7D1BB21B021AB2FB7D1BB25D
:100AE80013431AB27B685A813B7E1BB21B021AB2AF
:100AF8007B7E1BB213431AB27B689A8100BF2037F2
:100B0800BD4680BD80B584B000AF3B461846FFF7B0
:100B180085FFBB89FB81B7F90E3018461037BD46F3
:100B280080BD000080B500AF00220D210848FFF706
:100B380031FC4FF47A70FFF73BFE01220D21044887
:100B4800FFF728FC4FF47A70FFF732FE00BF80BD34
:100B58000010014080B500AF0F48FFF7ADFE02223C
:100B68000D210E48FFF7B0FB0121002000F01AF814
:100B78000320FFF71DFE0321002000F013F8F621E3
:100B8800012000F00FF801210F2000F00BF80448B5
:100B9800FFF792FE00BF80BD1CAB000800100140AB
:100BA80024AB000880B582B000AF03460A46FB714B
:100BB8001346BB71FFF768FC00212920FFF7A0FC52
:100BC800FB7963F07F03DBB21846FFF7CFFCBB79F4
:100BD8001846FFF7CBFCFFF785FC00BF0837BD467A
:100BE80080BD80B584B000AF0346FB71FFF74CFCB5
:100BF80000212920FFF784FCFB7963F07F03DBB237
:100C08001846FFF7B3FCFFF73FFC01212920FFF747
:100C180077FCFFF705FD0346FB73FFF763FCFB7BDF
:100C280018461037BD4680BD80B584B000AF034676
:100C3800FB71FB791846FFF7D4FF0346FB73FB797A
:100C48000133DBB21846FFF7CCFF0346BB73BB7B0F
:100C58001BB21B021AB2FB7B1BB213431BB29BB223
:100C680018461037BD4680BD90B59FB002AF14201E
:100C7800FFF7DAFF0346A7F86E301620FFF7D4FF18
:100C88000346A7F86C301820FFF7CEFF0346A7F8F5
:100C98006A301A20FFF7C8FF0346A7F86830B7F88C
:100CA8006E10B7F86C40B7F86A30B7F86820381D8E
:100CB8000192009323460A46054900F0CDF93B1DF1
:100CC8001846FFF7F9FD00BF7437BD4690BD00BF59
:100CD8002CAB000880B500AF02220D210248FFF7B7
:100CE800F3FA00BF80BD00BF0010014080B400AF20
:100CF800034B4FF400525A6100BFBD4680BC704799
:100D08000010014080B400AF034B4FF400521A6149
:100D180000BFBD4680BC70470010014080B400AFE2
:100D2800044BDB68034A83F40053D36000BFBD461D
:100D380080BC70470010014080B500AF022201213D
:100D48000A48FFF7C1FA022202210848FFF7BCFA55
:100D5800022203210548FFF7B7FA022204210348BB
:100D6800FFF7B2FA00F0B8F800BF80BD00080140F4
:100D780080B582B000AF0346FB711248FFF79CFDB7
:100D8800002201211048FFF705FB012202210E482D
:100D9800FFF700FB002203210B48FFF7FBFA0122B3
:100DA80004210948FFF7F6FAFB7919460120FFF7F5
:100DB800A9FCFB7919460220FFF7A4FC00BF0837FD
:100DC800BD4680BD48AB00080008014080B582B030
:100DD80000AF0346FB71012201211048FFF7DAFA40
:100DE800002202210D48FFF7D5FA012203210B4802
:100DF800FFF7D0FA002204210848FFF7CBFAFB7965
:100E080019460120FFF77EFCFB7919460220FFF7FF
:100E180079FC00BF0837BD4680BD00BF000801400F
:100E280080B582B000AF0346FB711248FFF744FD5E
:100E3800002201211048FFF7ADFA002202210E48D6
:100E4800FFF7A8FA002203210B48FFF7A3FA0122B3
:100E580004210948FFF79EFA00210120FFF752FC00
:100E6800FB7919460220FFF74DFC00BF0837BD4645
:100E780080BD00BF54AB00080008014080B582B0B7
:100E880000AF0346FB711248FFF716FD002201214F
:100E98001048FFF77FFA012202210E48FFF77AFA7D
:100EA800002203210B48FFF775FA002204210948A4
:100EB800FFF770FAFB7919460120FFF723FC0021A0
:100EC8000220FFF71FFC00BF0837BD4680BD00BFEA
:100ED8005CAB00080008014080B500AF002101208C
:100EE800FFF710FC00210220FFF70CFC00BF80BDBB
:100EF80080B483B000AF78607B680022C3F880209C
:100F08007B680022C3F8842000BF0C37BD4680BC34
:100F1800704780B485B000AF78600B46FB707B6883
:100F2800D3F88030013303F07F03FB607B68D3F88C
:100F38008430FA689A4201D100230AE07B68D3F82A
:100F480080307A68F978D1547B68FA68C3F88020D1
:100F5800012318461437BD4680BC704780B483B05F
:100F680000AF786039607B68D3F880207B68D3F85D
:100F780084309A4201D1002311E07B68D3F8843091
:100F88007A68D35CDAB23B681A707B68D3F884302D
:100F9800013303F07F027B68C3F8842001231846DD
:100FA8000C37BD4680BC704780B483B000AF786012
:100FB8007B68D3F880207B68D3F884309A4214BFCA
:100FC80001230023DBB218460C37BD4680BC7047AE
:100FD80080B483B000AF78607B68D3F880207B68EA
:100FE800D3F884309A4207D37B68D3F880207B6893
:100FF800D3F88430D31A07E07B68D3F880207B6865
:10100800D3F88430D31A803318460C37BD4680BCD9
:10101800704700000CB40A4610B56FF0004C00246D
:101028009CB01EAB53F804EB0A4902920591069254
:1010380002A9724601931B94CDF810C0CDF81CC0CC
:1010480000F030F8029B1C701CB0BDE8104002B0E4
:10105800704700BF0802FFFF0EB4024610B56FF0DC
:10106800004C00249DB01FAB53F804EB0B490C480F
:101078000292059006920868724602A901931B9491
:10108800CDF810C0CDF81CC000F00CF8029B1C7005
:101098001DB0BDE8104003B0704700BF000000203D
:1010A8000802FFFF2DE9F04FDDB00C4615460A9106
:1010B8000E93834603F03AF803681846179303F033
:1010C80057FA0822169000212CA802F0DDFAA3890D
:1010D8001F0603D52369002B01F0B78000230024E5
:1010E8009E46CDE93133002333AA90462E46CDE9FA
:1010F8001234CDE91AEE3092CDF860E0CDF864E014
:10110800CDF820E0CDF844E034466D4B2CAFD3F851
:10111800CC5102F0F7FF2246034626A9584600970D
:10112800A847002800F09E80C0F29480269B252BBB
:1011380001D00444E9E7A71B054640F09680002249
:101148004FF0FF3392460793013423788DF88F20B0
:10115800099299460134A9F120035A2B00F2B28072
:10116800DFE813F0E202B000B000DE02B000B00029
:10117800B000C102B000B0006A009002B0008C025A
:10118800A402B00095025B005B005B005B005B00A3
:101198005B005B005B005B00B000B000B000B0001B
:1011A800B000B000B0002901B0007F018D03290113
:1011B80029012901B000B000B000B0008903B000D7
:1011C800B000EC02B000B000B0005602B00044031A
:1011D800B000B000EB07B000B000B000B000B00045
:1011E800B000B000B0002901B0007F016A012901F8
:1011F80029012901CE036A017400B000E803B00098
:10120800D8031D04F2037400B0005602720065038F
:10121800B000B0004E08B00072000022A9F13003FF
:1012280014F8019B02EB820203EB4202A9F130039E
:10123800092BF5D909928EE70E9B53F8042B002A47
:1012480009920E93C0F21782237882E723784AF036
:10125800200A7EE7082200212CA802F015FA0120B6
:10126800044452E7A71B054611D0319A329B01323C
:101278003B44072AC8E900673293319216DC08F12B
:101288000808089B3B440893002D7FF458AF329B15
:10129800002B41F079830A9B9B8903F04003002BC4
:1012A80041F06F8708985DB0BDE8F08F58460A99FD
:1012B80030AA01F0E3FF0028EDD10DF1CC08E0E7FA
:1012C80014020020B9F1000FE1D0002301228DF8AB
:1012D8000C910C9243AE8DF88F300B93CDE9062319
:1012E800CDE90F331493329D1AF08403AE4600F013
:1012F800E5809DF88F2012B3002731980122013034
:101308000135C8F8042007280DF18F02CDE9310511
:10131800C8F8002000F3498408F108087FB1319823
:10132800022201300235C8F80420072824AACDE992
:101338003105C8F8002000F3298408F10808802B3B
:1013480000F04183079B0C9A9F1A002F00F3C78077
:101358001AF4807F40F000810C9BC8F800601D449F
:10136800C8F80430319B32950133072B319300F3D1
:10137800B68308F108081AF0040F05D0099B069AED
:101388009E1A002E00F32084DDE9083206998A426D
:10139800ACBF9B185B180893002D40F058830023BE
:1013A80031930B9B1BB158460B9904F067FA2646FC
:1013B8000DF1CC08A8E60E9B073323F00701F1E8EE
:1013C8000223CDE91223139B1E9223F000431F939F
:1013D8000E914FF0FF32DDE91E01AF4B09F044FBDF
:1013E800002840F04F86DDE91E014FF0FF32AA4B7E
:1013F80009F01CFB0546002840F04486DDE912018F
:10140800002200232AF0800A09F006FB002841F098
:1014180054819DF88F30B9F1470FCCBF9F4EA04E35
:10142800002B41F0C6850322CDE90F330B930C92B4
:1014380007931493069256E71AF0200F40F015868A
:101448000E9A1AF0100F52F8045B41F0FE861AF05B
:10145800400F0E9201F0268145F3C0373B462DB26E
:101468001DE2B9F1430F03D01AF0100F00F0D68631
:10147800082200212EA802F007F90E9A43AE314641
:10148800584612682EAB05F0D3FF0C90013001F0DE
:1014980073860C9B23EAE37306930E9B329D0433F9
:1014A8000E930023CDE90F338DF88F300B930793FC
:1014B80014931AF08403AE467FF41BAF099A06987A
:1014C800171A002F00F367849DF88F20002A7FF4F5
:1014D80013AF079B0C9A9F1A002F7FF739AF714BF8
:1014E800102F319A159325DD2946102325460A9C8D
:1014F80004E0103F102F08F1080819DD013269488F
:101508001031072AC8E90003CDE93121F1DD214670
:10151800584630AA01F0B2FE002840F0A082DDE96A
:101528003121103F102F4FF010030DF1CC08E5DCEE
:101538002C460D460132159B3D44072ACDE931253D
:10154800C8F80030C8F8047000F39A841AF4807F51
:1015580008F108083FF400AFB9F1650F40F3CA82FB
:10156800DDE912010022002309F04CFA002800F0FE
:1015780075830123C8F80430319B4B4A0133013588
:10158800072B32953193C8F8002000F3C58708F17E
:101598000808259B119A934280F21D85169B179A7D
:1015A8001D44C8E90023319B32950133072B319341
:1015B80000F33E8608F10808119B5E1E002E7FF797
:1015C800DAAE102E319B41F3D38536492A461027CF
:1015D8000D46DDF82890159105E008F10808103E41
:1015E800102E40F3CE8701331032072BC8E900577D
:1015F800CDE93132F1DD4946584630AA01F03EFEC8
:10160800002840F02C82DDE931320DF1CC08E6E704
:1016180000230E9F8DF88F3057F8046B002E00F0D2
:101628002386B9F1530F00F084871AF010030F9343
:1016380040F07F87079B002BC1F297811A463046FE
:101648000F9902F055FF9DF88F300B90002801F09C
:101658000D850B9A0E97921B0C9222EAE272069263
:101668000BB1531C06930F9B4FF073090793149308
:1016780010930B9337E6099B5B42099323784AF052
:10168800040A66E52B238DF88F30237861E52378EB
:101698004AF0800A5DE500BFFFFFEF7F68AB0008F6
:1016A80064AB000800AE0008A4AB0008214611F89E
:1016B800019BB9F12A0F01F0AE85A9F13003092B7E
:1016C80098BF002201F29C8311F8019B02EB820271
:1016D80003EB4202A9F13003092BF5D942EAE27380
:1016E8000C46079337E5584602F020FD4368184634
:1016F800199302F03DFF1B900546584602F016FD6F
:10170800816823781A91002D3FF423AD00293FF416
:1017180020AD0A78002A3FF41CAD4AF4806A18E527
:1017280023784AF0010A14E59DF88F202378002ACF
:101738007FF40FAD20228DF88F200AE51AF0200FD4
:101748004AF0100000F093840E9B073323F0070340
:101758001A46596852F8083B0E9200228DF88F20DD
:10176800079A002A18DB53EA010220F4906A15D17F
:10177800079A9AB910F001031A46069300F0A68654
:1017880030238DF86F31079B0C92CDE90F331493FA
:101798000B930DF26F16A6E520F4806A5CAE03F099
:1017A8000702DB0843EA4173C908303253EA0105EE
:1017B800304606F8012DF2D11AF0010F00F04282EE
:1017C800302A00F03F8230230238002206F8013C1C
:1017D80006465CAB1B1A0B920C930799CDE90F22B6
:1017E8009942B8BF1946149206917CE51AF0200F69
:1017F8004AF0100120D10E9B1A1D00270E9B079856
:101808001B68B8421D468DF88F7058DB21F0800A9E
:10181800002B40F0F5850E92002840F01384CDE9A6
:101828000F000C90149006900B905CAE5BE51AF0DC
:10183800200F00F0E98351460E9B073323F007027F
:1018480000238DF88F30079B576852F8085B002BF0
:101858000E9235DB55EA070321F0800A31D1079B48
:10186800002B40F0EF83CDE90F330C9314930693CC
:101878000B935CAE37E523784AF0080A69E41AF05E
:10188800200F4AF0100100F0B0830E9B8A46073300
:1018980023F00702536852F8085B1F460E92002B8C
:1018A800C0F2FB82079A002A0BDB55EA07032AF0ED
:1018B800800A06D1002A00F0D287302507E00E9270
:1018C8008A460A2D77F1000380F0F8823035079BAD
:1018D8008DF86F51012BB8BF0123069301230C9398
:1018E8009DF88F300DF26F16002B01F08E82069B4B
:1018F800013306930023CDE90F330B931493F2E4DD
:101908002378682B03BF63784AF4007A01344AF0DD
:10191800400A1EE40E9A1AF0200F02F1040300F0A8
:101928009383126808991160C917516026460E936F
:10193800FFF7EABB23786C2B03BF63784AF0200AD1
:1019480001344AF0100A04E4002547F630030E9AE1
:10195800079E52F8041BAE42ADF890308DF88F50B8
:101968000B46C0F24F842AF0800040F0020A00299A
:1019780040F03686002E00F0798730238DF86F31DD
:10198800012306964FF078098C4614910E920C9319
:101998000F910B9110910DF26F1600F019BC1AF00F
:1019A800200F40F06C830E9A1AF0100F52F8043B87
:1019B80041F060841AF0400F50460E9200F06B869A
:1019C80000219BB2C9E6099B069A9F1A002F7FF750
:1019D800B9AC102F319A41F3D982DFF874C241466D
:1019E8002846B046102326460A9D6446CDF854C0C2
:1019F80004E0103F102F01F1080115DD013210300D
:101A0800072AC1E90043CDE93120F2DD29465846CD
:101A180030AA01F033FC10BBDDE93120103F102F54
:101A28004FF0100333A9E9DC34460546464688469C
:101A38000132159B3D44072ACDE93125C8F800300D
:101A4800C8F8047000F3B98508F108087AE4584624
:101A58000A9930AA01F012FC00283FF4A0AC0B9BB5
:101A6800002B3FF418AC58460B9903F007FF0A9B6C
:101A78009B8903F0400312E40123C8F80430319B2A
:101A8800744A01330135072B32953193C8F8002089
:101A980000F3C88608F10808002940F0AD85119ABE
:101AA8000AF0010313433FF466AC169B17995A19C1
:101AB800C8E90013319B32920133072B319300F3AD
:101AC800858708F10808119901338D18072BCDE98E
:101AD8003135C8F80060C8F804107FF74AAC58469A
:101AE8000A9930AA01F0CAFB0028B8D1329D0DF13D
:101AF800CC0840E4119B319F012B05F1010507F14A
:101B0800010708F1080940F32B810123072FCDE9CC
:101B18003175C8F80060C8F8043000F34F82169B8E
:101B28000137179A1D44072FC9E90023CDE93175FC
:101B380000F3378209F10809119B0022DDE912013F
:101B480003F1FF38002308F05DFF002840F06C81A6
:101B5800013701364544072FCDE93175C9F80060D2
:101B6800C9F8048000F30A8109F10809189B0137B4
:101B78001D44C9F80430072F28ABCDE93175C9F8E1
:101B88000030ACDC09F10808FFF7F5BB58460A99A4
:101B980030AA159301F072FB00287FF460AF329DE4
:101BA800159B0DF1CC08FFF7CABB58460A9930AA15
:101BB800159301F063FB00287FF451AF329D159B0C
:101BC8000DF1CC08FFF7AABB102E319B41F35781CA
:101BD800214AA24610271446DDF82890159204E001
:101BE800103E102E08F1080816DD01331035072BBA
:101BF800C8E90047CDE93135F2DD4946584630AAF3
:101C080001F03CFB00287FF42AAFDDE93135103EB6
:101C1800102E0DF1CC08E8DC54460133159A3544F2
:101C2800072BC8E90026CDE931357FF7ADAB58461B
:101C38000A9930AA01F022FB00287FF410AF329DE8
:101C4800FFF7A2BB00225CAB9B1B0B920C93C4E575
:101C580000AE0008A4AB000810AE00082599814228
:101C68007FF70AAFDDF83C90119B9945A8BF9946CC
:101C7800B9F1000F0BDD319B4D440133072BC8E947
:101C880000693295319301F3498008F108080F9FE4
:101C9800B9F1000FA8BFA7EB0907002F00F3F482E2
:101CA8000F9B1AF4806F334440F01583259A1199DD
:101CB8008A4203DB1AF0010F00F0E58516991798A0
:101CC8000D44C8E900013199329501310729319154
:101CD80001F3318008F1080811997718FF1A8E1A54
:101CE800B742A8BF3746002F0DDDC8F80030319B3A
:101CF8003D440133072BC8F804703295319301F342
:101D08006B8008F10808002FA8BFF61B002E7FF78C
:101D180032AB102E319B41F32B82B8492A4610274B
:101D28000D46DDF82890159105E008F10808103EE9
:101D3800102E40F3268401331032072BC8E90057D0
:101D4800CDE93132F1DD4946584630AA01F096FA1C
:101D580000287FF484AEDDE931320DF1CC08E6E7E6
:101D68001AF0010F7FF4D1AE0123072FCDE93175A9
:101D7800C8F80060C8F804307FF7F8AE58460A99EA
:101D880030AA01F07BFA00287FF469AEDDE93175ED
:101D98000DF1CC09EAE6319A102F714641F318800B
:101DA800DFF85CC240462094B046102564460A9E7F
:101DB800CDF854C0219304E0103F102F00F1080023
:101DC80015DD01321031072AC0E90045CDE931217E
:101DD800F2DD3146584630AA01F050FA00287FF467
:101DE8003EAEDDE93121103F102F33A8E9DC46462D
:101DF800DDE92043804615987D18C8F80000501C7E
:101E08000728CDE93105C8F8047000F368839DF808
:101E18008F2008F10808002A40F0E380002B3FF4E7
:101E280091AA1346FFF77CBA119B012B7FF79EAE50
:101E3800112B41F3AF81714B2A46079410261D469A
:101E48000A9C159307E009F10809A8F11008B8F1F0
:101E5800100F40F3108401371032072FC9E90056DC
:101E6800CDE93172EFDD2146584630AA01F006FA75
:101E780000287FF4F4ADDDE931720DF1CC09E4E717
:101E880058460A9930AA01F0F9F900287FF4E7AD1D
:101E9800329D0DF1CC08FFF75BBA2D238DF88F30FA
:101EA800079B6D4267EB4707002BFFF60AAD0A2D2B
:101EB80077F100032AF0800AFFF408ADCDE90B8919
:101EC80006944FF0000EDDF868905CA90AF480646F
:101ED80025E0EB194B4843F10003A0FB032020F059
:101EE800030202EB90029B1A4FF0CC32A846BC4684
:101EF800EB1A02FB03F2434867F1000700FB0722D5
:101F0800A3FB0053B8F10A0F13444FEA55057CF1BF
:101F1800000C314645EAC3754FEA53072DD3DFF865
:101F2800E4C0EB1943F10003ACFB032020F00302EB
:101F380002EB90029B1AEB1AA3FB0C3267F100002C
:101F48000CFB00225B0843EAC27303EB8303A5EB97
:101F5800430330330EF1010E4E1E01F8013C002CF4
:101F6800B7D099F800307345B3D1BEF1FF0FB0D0A8
:101F78000A2D77F1000380F0B383079A5CAB9B1BB3
:101F88009A42B8BF1A46069CCDF86890DDF82C80B6
:101F9800DDF83090CDF844E00C9306929DF88F3030
:101FA800A2E458460A9930AA01F068F900287FF49B
:101FB80056ADDDE931750DF1CC09BDE558460A99F4
:101FC80030AA01F05BF900287FF449ADDDE93175ED
:101FD8000DF1CC09A3E51AF0010F3FF4CCA9FFF7E6
:101FE800DDBA1F460023FFF789B90E9B1A1D0E9B09
:101FF8008A461D680E92EF173B4650E400AE000873
:1020080010AE0008CDCCCCCC0E9A1AF0100052F8C5
:10201800043B41F028811AF0400100F0E6818DF878
:102028008F009BB2002707991D46B942C0F2E8818C
:102038002AF0800A002B40F0E381079B0E92002BC8
:102048003FF411AC002541E41AF0100F40F0C282B1
:102058001AF0400F40F02B841AF4007F00F0BA8287
:102068000E9A08991268117060E451460DE40E9BAF
:102078001A1D0E9B00211B680E92FFF76EBB50467F
:10208800FFF762BBDDE9120102460B4608F0ECFCE3
:102098000546002841F01080B9F1610F00F09085E5
:1020A800B9F1410F00F0B786079B013300F09C841B
:1020B8004AF48072B9F1670F139B069200F02B87E0
:1020C800B9F1470F00F027870B90DDE91212002ABB
:1020D800C0F2198700231593DDE91223CDE91C23EB
:1020E800A9F14103252B00F2F183DFE813F0D406B0
:1020F800EF03EF03EF038504ED04EF03EF03EF03B2
:10210800EF03EF03EF03EF03EF03EF03EF03EF0337
:10211800EF03EF03EF03EF03EF03EF03EF03EF0327
:10212800EF03EF03EF03EF03EF03EF03EF03D4062F
:10213800EF03EF03EF038504ED04B3481AF0200F13
:1021480000F07E810E9B073323F007031A465D6873
:1021580052F8083B0E921AF0010140F05D81079A8F
:102168008DF88F10002AC0F28C8153EA05022AF4F8
:10217800906A00F0958103F00F02825C1B0943EA24
:1021880005738DF86F212A0953EA15150DF26F169C
:102198000BD003F00F05455D1B0943EA02731209D2
:1021A80006F8015D53EA0205F3D1079A5CAB4FF0DC
:1021B800000C9B1B9A42B8BF1A46CDE90FCC0C9372
:1021C8000692CDF82CC0CDF850C000293FF48BA85A
:1021D800DDE93105069BAE46023306931AF0840307
:1021E800024604D1099F06997F1A002F06DCBCF12C
:1021F800000F3FF495A80227FFF780B80223CBE52C
:1022080082489BE70E92814A03F00F06104602218E
:102218004FF07809925D4AF0020AAFE701220E9B5F
:1022280006921B6843AE8DF80C310C92FFF735B956
:1022380058460A9930AA01F021F800287FF40FAC1B
:10224800329D0DF1CC08FFF7B7B94021584603F08D
:1022580061FC0A9B18601861002801F00780402380
:102268000A9A5361FEF73ABF079B3246062B28BFEE
:10227800062307960B96CDE90F22654E06930E9717
:102288000C931492FFF72FB8102F319B40F37E87E1
:10229800604842462946A0464FF0100905460A9C68
:1022A800159004E00832103F102F40F36C82013380
:1022B8001031072BC2E90059CDE93131F2DD214651
:1022C800584630AA00F0DAFF00287FF4C8ABDDE9F1
:1022D800313133AAE7E71F46119A109BB218002B39
:1022E8002946DDF850900792CDF854A04246DDF813
:1022F80068A01B9DDDF828800F94149631DDB9F194
:10230800000F40F3038109F1FF393198199B01301F
:1023180029440728C2E900353291319000F39D80A5
:102328000832079B9AF80000DE1B8642A8BF0646C3
:10233800002E0CDD3198314401300728C2E90076BF
:102348003291319000F32C819AF800000832002E67
:10235800B4BF0446841B002C15DC0744109B002BDB
:10236800CDDCB9F1000FCEDC9046149E119A3B46A5
:10237800B2189742CDF868A00D4628BF13460F9CA7
:10238800DDF854A092E4102C3198224B1FDD102662
:102398000C9304E0103C102C02F1080216DD013009
:1023A8001C4B10310728C2E90036CDE93101F1DDB7
:1023B8004146584630AA00F061FF00287FF44FAB31
:1023C800DDE93101103C102C33AAE8DC0C9B01300C
:1023D80021440728CDE931011360546000F382835A
:1023E8009AF8000008320744B8E71AF4007740F07A
:1023F800568207991D4600298DF88F70BFF618AED2
:102408000E92FFF75EBA00BF88AB000874AB0008F5
:102418009CAB000800AE000853EA050237D0302212
:102428008DF8902000228DF88F20079A8DF89190D2
:10243800002A23DB2AF49062022142F0020A9AE67B
:102448000E9A1AF0100F52F8043B0E9214D11AF09B
:10245800400F0DD000259BB27DE64146584630AA74
:1024680000F00CFF00287FF4FAAA329933AA58E743
:102478001AF4007F40F0188200256CE602214AF029
:10248800020A03F00F02825C2AF4806A76E60021D1
:10249800079B8DF88F108B42C0F26D812AF4906AE9
:1024A800079A002A00F0A580012AB8BF0122037804
:1024B80006928DF86F31012200230C92CDE90F337B
:1024C8000B930DF26F161493FEF70DBF079B5CAECE
:1024D800CDE90F330C9314930B93FEF704BF5846C2
:1024E8000A9930AA159300F0C9FE00287FF4B7AA0C
:1024F8009DF88F20329D159B002A00F0B3801F465F
:102508000DF1CC0803463198FEF7F8BE109B0AF18E
:10251800FF3A013B1093F8E658460A9930AA00F0B2
:10252800ADFE00287FF49BAA329D0DF1CC08FFF781
:1025380030B8082200212EA8279601F0A5F8079B9D
:10254800002BC0F23381002506940B972C461F46BA
:102558000FE02EAB584643A904F06AFF431C05F16F
:102568000405204400F01B85B84206DC00F06C85A9
:102578000446279B5A59002AEBD10C940B9F069CC2
:1025880021E11546159A01333544072BC8F8002078
:10259800C8F80460CDE931357EF7EBAEFFF79FBA96
:1025A8004146584630AA00F069FE00287FF457AA31
:1025B8009AF80000329933AAC9E658460A9930AA0F
:1025C80000F05CFE00287FF44AAA329D0DF1CC0889
:1025D800FEF7B8BE0E9A089912681160FFF7A6B9FF
:1025E800B6480E9201F00F024FF078090221825C82
:1025F800C4E5079BFFF737B9169B17985A19C8E91E
:102608000003319B32920133072B319300F3DE81B3
:1026180008F108080029BFF656AA4F42103180F287
:102628009984DFF89C921025CDF8549005E008F1C4
:102638000808103F102F40F38F8401331032072B06
:10264800C8E90095CDE93132F1DD58460A9930AA3A
:1026580000F014FE00287FF402AADDE931320DF102
:10266800CC08E6E7002B00F01681134631980DF1EF
:10267800CC08FEF755BE1546079C0137159B454407
:10268800072FCDE93175C9F80030C9F804807FF704
:102698006BAAFFF773BB1AF400711CBF0021DBB2F1
:1026A800FFF75BB81AF4007F14BF45F3C017EF17A4
:1026B8003B4618BF6DB2FFF7F2B82D238DF88F3067
:1026C80003230C930423B9F1470F0B95069300F3EA
:1026D8004581CDE90F557B4E07951495FEF703BE4E
:1026E8001B9A1999A6EB0208404601F011F899F8CF
:1026F80001300BB109F101094FF0CC314FF0010E57
:10270800714AEB1943F10003A2FB030C2CF0030000
:1027180000EB9C001B1AEB1A03FB01F167F10007A1
:10272800A3FB023002FB071123FA0EF3014443EA2C
:10273800C17521FA0EF7EB1943F10003A2FB031050
:1027480020F0030101EB90015B1AEB1AA3FB0231A5
:1027580067F1000002FB001223FA0EF343EAC2738A
:1027680003EB8303A5EB4303303308F1FF3608F886
:10277800013CFFF7F6BB03782AF4806A8DF86F31C5
:102788000DF26F1611E544460D4690460133159A31
:102798003D44072BCDE93135C8F80020C8F804704E
:1027A80000F3078108F10808FFF77ABA2EAB009307
:1027B80000235846194627AA04F090FE0C900130D1
:1027C80000F0ED8327960C9B002B39D0632B00F388
:1027D800E680002343AE0B93082200212EA800F0C8
:1027E80053FF0C9D2EAB009331462B46584627AA23
:1027F80004F074FE854240F0318500230C9A07935B
:10280800B35422EAE2719DF88F2006910E97002AB0
:1028180000F0FC82069ACDE90F3301320692149338
:10282800FEF761BD58460A9930AA00F027FD002836
:102838007FF415A92599329D0DF1CC08FFF72CB925
:102848009DF88F300E97003B18BF012306930C9B11
:10285800CDE90F33079314930B93FEF744BD9DF80E
:102868008F3006920C925CAEFFF73EB8079B4FF094
:1028780078099C46CDE90F330E9214930C93069376
:102888005CAE0B93A4E47718FF1A8E1AB742A8BF60
:102898003746FFF738BA0DF1CC08FEF753BD8DF86F
:1028A8008F10DBB2FFF7BEBB0025DBB253E40E9AF4
:1028B800089912681180FFF739B800BF74AB000897
:1028C80000AE000864AB0008CDCCCCCC079B5846C2
:1028D8000193022300932EAB049327AB039325ABFC
:1028E8000293DDE91C2301F043FF06461AF0010FAD
:1028F80040F08282259A2E9BD11CA3EB06031193EC
:102908000F92C0F2288207999142C0F2388193420F
:1029180000F3AA820F9B0C931AF4806F03D00F9BCD
:10292800002B00F34D834FF067090C9BDDF818A0CE
:1029380023EAE3730693002314931093159B0AF07C
:102948000201002B00F0C4804FF02D0C8DF88FC0D1
:10295800069B013306930023079336E4CDE90F5510
:10296800964E07951495FEF7BEBC304601F000FE62
:102978009DF88F3020EAE0720C9006920E97002B9B
:102988003EF471AEFEF76DBE0A9C5846214630AA49
:1029980000F074FCA38903F04003FEF780BC58469E
:1029A800591C03F0B7F80646002800F051840B9034
:1029B80012E758460A9930AA00F060FC00287FF414
:1029C8004EA8329D0DF1CC08FFF76AB958460A990E
:1029D80030AA00F053FC00287FF441A8DDE9313229
:1029E80025990DF1CC0815E6062307934AF4807360
:1029F8000B900693FFF769BB0223079A01321192E5
:102A080000932EAB119D049327AB039325AB01953F
:102A180002935846DDE91C2301F0AAFE29F020079D
:102A2800462F064605446BD0DDE91C010022002331
:102A380007F0E8FF002840F0FC822E9B9D4288BFEB
:102A4800452740F2F48230215A1C2E9219702E9B91
:102A5800AB42F9D39B1B1193259B472F0F9300F093
:102A68008680462F62D00F9B8DF8A090013B002BEB
:102A78002593C0F277812B22092B8DF8A12000F332
:102A88007A8130228DF8A2200DF1A302303302F8AA
:102A9800013B28ABD31A1893119B189A012B1A449F
:102AA8000C9240F377820C9B169A13440C932AF4E9
:102AB800806343F4807A00230C9ACDE90F3322EA2D
:102AC800E2721493069239E7079B1193032397E761
:102AD8009DF88FC0BCF1000F7FF43AAF159B0793A8
:102AE800FFF773BB4146584630AA00F0C7FB0028E1
:102AF8007EF4B5AF9AF80000329933AA07442DE462
:102B08003378302B00F08682259B1D440022DDE9B6
:102B18001C01002307F076FF18BB2E9BAB4292D313
:102B28009B1B1193259B472F0F9320D00F99079A32
:102B38000AF00103002943EA020340F33F83002B14
:102B480040F07A824FF066090F9B0C931AF4806F5D
:102B580040F038820C9BDDF818A023EAE373069353
:102B6800E9E6259B0F93AB1B472F1193DED10F9BF3
:102B78000333C0F2F080079B0F9A934210DA0F9B41
:102B8800A9F10209013B002B8DF8A0902593BFF60F
:102B980072AF2D220F9B8DF8A120C3F1010370E7BE
:102BA800119B0F9A934200F35F811AF0010F0F9B5C
:102BB80000F0DB82169A13440C93ADE668AB00086C
:102BC80047F63003ADF89030079B4AF0020A632BB2
:102BD80000F38A81DDE91212002AC0F25481DDE98E
:102BE800120125AA01F0F2FC00224FF07F5307F0F2
:102BF800A1FC02460B46CDE90C230022002307F076
:102C080001FF002800F072820123159525930B958A
:102C180043AEAF4B0693CDE90F48DDE90C45CDF83F
:102C28004490079FDDF81890CDF850A0189607E05B
:102C38000022002307F0E6FE002840F025825746D0
:102C48000022A44B2046294607F074FC0D46044692
:102C580007F020FF804607F003FC02460B4620469B
:102C6800294607F0AFFA19F80830324604460D46EF
:102C780007F1FF3A06F8013B002FD9D10792964B8E
:102C88000022CDE90C45474635460F9CDDF84490B7
:102C9800DDF850A0189EDDF8408007F0DBFE40B953
:102CA800DDE90C0100228C4B07F0ACFEE0B1F8071F
:102CB8001AD5079B2E93069B15F8012CD97B2B461A
:102CC800914209D1302003F8010C2E9B5A1E2E92F6
:102CD80013F8012C8A42F6D0392A0BBF069A013222
:102CE800927AD2B203F8012C259AAB1B1193B9F151
:102CF800610F02F1FF33259300F0258250214FF038
:102D08004109002B8DF8A010C0F214822B22092B48
:102D18008DF8A1202FDC0DF1A202B7E658460A99DA
:102D280030AA00F0ABFA00287EF499AE329D0DF17E
:102D3800CC08FEF7ACBF58460A9930AA079300F0B2
:102D48009DFA00287EF48BAE259A329D079B0DF1E3
:102D5800CC08FEF7C1BF0F9BA9F10209013B8DF812
:102D6800A09025932D230F9A8DF8A130C2F101036D
:102D78000832BFF686AE0DF1AF073A46DFF85CC100
:102D88001046ACFB0321C90801EB8102A3EB420208
:102D98003032632B00F8012C0B4600F1FF32EFDCD8
:102DA800303302F8013C831EBB4280F01E820DF1D5
:102DB800A10213F8011BBB4202F8011FF9D103F568
:102DC800B8736B44CC3B1B1A28AA9B1A189363E66A
:102DD80043481590FFF70FB858460A9930AA00F0F3
:102DE8004DFA00287EF43BAE259E119B329D0DF1D5
:102DF800CC089E1BFEF787BF079B4727F51885E67B
:102E080000230C460793FEF7A6B90B93CDE90F33C1
:102E18001493FEF768BA45F63003ADF89030079B77
:102E28004AF0020A632B5FDCDDE9121282422ADBD8
:102E3800DDE9120125AA01F0C9FB00224FF07F53FA
:102E480007F078FB02460B46CDE90C23002200234D
:102E580007F0D8FD08B1012325930023214A1593D3
:102E6800069243AE0B93D6E6119B169A9A180F9BBF
:102E78000C92002B40F3EE804FF0670966E6184A83
:102E88001592FEF7CABE1C912D2102F100430B9545
:102E9800159143AE1D9325AADDE91C0101F096FBAF
:102EA80000224FF07F5307F045FB02460B46CDE961
:102EB8000C230022002307F0A5FD08B10123259368
:102EC800B9F1610F3FF4A5AE064B0693A3E600BF28
:102ED80074AB0008000030400000E03FCDCCCCCC03
:102EE80010AE000888AB0008079B5846591C02F032
:102EF80011FE0646002800F03F814AF480730B90CB
:102F08000693FFF7E2B81C912D2102F100431591B9
:102F18001D93FFF7E5B8079A002A00F01681002BE9
:102F2800C0F24381DDE91223CDE91C231595079BE7
:102F380058460193022300932EAB049327AB0393C7
:102F480025AB0293DDE91C2301F012FC00230646A1
:102F58000B93CBE4A6491591013315993A44072BF5
:102F6800CDE93132C8F80010C8F804707EF7A9AD71
:102F780058460A9930AA00F081F900287EF46FAD0E
:102F8800DDE931320DF1CC08FEF79DBD984B159364
:102F9800FEF74EBD1AF0010F3FF489AD83E500221C
:102FA8000A9B0B929B8943F040030A9A9381FEF790
:102FB80056BD03220023CDE90B320422FEF78EB959
:102FC8004FF067091A990B78FF2B00F03A8100251A
:102FD8000F9A284603E001300131FF2B08D09342B5
:102FE80006DAD21A4B78002BF5D10B780135F4E7C5
:102FF800CDE90F201A911495109A149B1B9913442C
:103008000C9ADDF818A001FB03230C9323EAE37361
:10301800069393E40022DDE91C01002307F0F2FC8B
:10302800002800F09D80259B0F931D449BE59B1B6A
:103038001193259B0F9316E5169B02EB01094B4450
:103048000C934FF0660981E5079B069C0B9F0C9338
:10305800FFF7B9BBC3F101031A4422EAE273DDF8B2
:1030680018A04FF067090C92069364E40E97002BA2
:1030780042D0079B4FF073090C930133CDE906301A
:1030880014901090FEF72FB907975746DDE90F48BF
:10309800002F3546DDF84490DDF850A0189EFFF665
:1030A80023AE2B4630220799294403F8012B8B4283
:1030B800FBD12F447D1C17E6139B2AF0800A13F0DE
:1030C80000430F9323D02D2303228DF88F30002344
:1030D800CDE90B320422B9F1470F06925EDDCDE946
:1030E8000F33444E07931493FEF7FDB8424B1590E7
:1030F800069343AE0B908EE5079B4FF073090C9334
:1031080006930B9B149310930793FEF7ECB89DF866
:103118008F30B9F1470FCCBF364E384E002B40F0F8
:103128008580032207930C92149310930B930692B5
:10313800FEF7D9B82D238DF8A130C2F1010308326A
:10314800FFF619AEE7E57021DBE5934258DB079BF4
:10315800159301230793DDE91223CDE91C23E6E645
:10316800119BC3F101032593CFE40C93FFF7D4BB64
:103178001F4A1592FFF706BA0A9A938943F040034B
:1031880093814FF0FF330893FEF78CB8184A1592D5
:10319800FFF7FCBA164B1593FFF76FBACDE90F335B
:1031A800164E07931493FEF79EB82D21DDE91223DE
:1031B80003F100431C9215911D93B8E6DDF818A0A1
:1031C80033B901234FF0660906930C93FFF7B3BB9D
:1031D800169B03F10109079B4B440C9323EAE37305
:1031E8004FF066090693FFF7A6BB0223189353E432
:1031F80000AE000870AB000874AB00086CAB0008A8
:103208002D21DDE912231591012103F100431C92C0
:1032180007911D938BE60E9A63780C4652F8041BAF
:103228000E9241EAE1720792FDF793BF0322002351
:103238000C92042207930692149310930B93FEF7B3
:1032480052B8002314931093D6E65146FEF7CFBE2A
:103258000A9B0B909B8943F04003A6E60A9B9B8937
:1032680043F04003A1E65146FEF7C7BA0C23CBF85A
:10327800003086E75046FEF7FCBE00BF2DE9F0415E
:103288001546926802B32C6807468846083402E05F
:1032980013460834C3B16B68591E002B696013DDEF
:1032A80054F8046C002EF3D033464146384654F89F
:1032B800082C04F039F9431C07D0AA680834921B7B
:1032C8001346AA60002BE6D100200023C5E901338C
:1032D800BDE8F081024A0349034800F069B900BF1C
:1032E80008020020F9750008080000200C4B41680E
:1032F80010B59942044601D004F07AF9A168094B47
:10330800994202D0204604F073F9E168064B9942CD
:1033180004D02046BDE8104004F06AB910BD00BFD3
:103328002C09002094090020FC09002008B54B6EE8
:10333800DA0702D48B899B0501D5002008BD886D6A
:1033480000F090FF002008BD08B54B6EDA0702D4E4
:103358008B899B0501D5002008BD886D00F08AFF88
:10336800002008BD2DE9F84300250423304C314ADC
:103378003149DFF8C890DFF8C880324F324E11600B
:1033880004F15C0029460822C4E90335C4E9005564
:10339800C4E90555A560656600F076F904F15800A2
:1033A800C4E90749C4E90987E66200F053FF274BDF
:1033B8002946082204F1C4006367C4E91A55C4E920
:1033C8001E552567C4F8CC50C4F8805000F05CF94D
:1033D80004F1680304F1C000C4F88430C4E92298F9
:1033E800C4E9247600F036FF194B294604F5967097
:1033F8000822C4F8DC30C4E93455C4E93855C4F8A7
:10340800D850C4F83451C4F8E85000F03DF904F13C
:10341800D003C4E93D87C4F8F09004F59470C4F86B
:10342800FC60C4F8EC30BDE8F84300F013BF00BFFF
:103438002C090020640A0020DD320008FD35000850
:10344800253600086536000889360008090001009D
:1034580012000200F8B507462A4800F003FF2A4B7D
:103468001B68002B43D0294E7368013B26D4B468EF
:1034780003E05A1C04F1680420D0B4F90C50013B55
:10348800002DF6D1224B04F15800E360656600F088
:10349800E1FE1C4800F0EEFE08222946C4E9015569
:1034A800C4E904552560A56104F15C0000F0ECF85E
:1034B800C4E90C55C4E911552046F8BD35680DB16D
:1034C8002E46D1E74FF4D671384602F023FB044666
:1034D80080B104230560294625460C304FF4D0728C
:1034E800A060636000F0D0F834602E46BCE7FFF7B8
:1034F80039FFB8E70348346000F0BCFE0C233B609A
:10350800DAE700BF4C0C0020640A00200802002003
:103518000100FFFF10B504460A4800F0A3FE636BE4
:1035280023B9094B094A1B68626323B1BDE81040FF
:10353800044800F09FBEFFF715FFBDE810400148A2
:1035480000F098BE4C0C0020640A0020F5320008F8
:10355800014800F087BE00BF4C0C0020014800F075
:1035680089BE00BF4C0C002008B5054800F07AFE63
:10357800BDE808400020034A034900F019B800BF1D
:103588004C0C0020080200203533000808B5002044
:10359800044A054900F00CF8BDE80840034800F06B
:1035A80069BE00BF08020020513300084C0C0020FF
:1035B8002DE9F84380460F464FF000091646756816
:1035C800013D11D4B468A389012B08D9B4F90E3090
:1035D800013304D021464046B84749EA0009013D75
:1035E8006B1C04F16804EED13668002EE7D148461A
:1035F800BDE8F88310B50C46B1F90E1000F0FCFDDB
:10360800002803DB236D0344236510BDA38923F43D
:103618008053A38110BD00BF002070472DE9F04101
:103628001F46B1F90C301646DA050C4605460BD490
:1036380023F48051A1813B4632462846B4F90E1046
:10364800BDE8F04100F0EEBD02230022B1F90E10F2
:1036580000F0BCFDB4F90C30EAE700BF10B50C4629
:10366800B1F90E1000F0B2FDB4F90C30421C0EBFD7
:1036780023F4805343F480532065A38110BD00BF19
:10368800B1F90E1000F05ABD30B5840786460346DE
:1036980006D0A2B303F8011B980702F1FF32F8D154
:1036A800032A26D95FFA81FC0CEB0C2C0F2A0CEBB1
:1036B8000C402AD922F00F0C9C44C3E90000C3E94E
:1036C800020010336345F8D112F00C0F02F00F0519
:1036D80017D01A464FEA950C0CF1FF3403EB8C0C0B
:1036E80042F8040B6245FBD1043305F0030203EBF7
:1036F800840322B11A4403F8011B9A42FBD1704695
:1037080030BD2A46002AF5D1F9E71546E1E700BFA2
:1037180010B504460843830724D1032A22D90B464F
:10372800A44618681946A0F1013323EA000313F0F0
:10373800803F18D1043A032A4CF8040B01F1040322
:10374800EFD8194601F1FF3E52B163461EF8011F3A
:10375800501E03F8011B49B102469C46002AF4D1C9
:10376800204610BDA44601F1FF3EEDE79444002831
:10377800F6D003F8011B6345FBD1204610BD00BFFE
:103788002DE9F041884600F1200700F1400639464E
:1037980000F1E005404600F04DFE3446214638462B
:1037A80000F06AFD203420B9AC42F7D14046BDE8AC
:1037B800F0810649404604F04BF931464046203630
:1037C80004F046F9AE42F4D1F0E700BFA8AB000818
:1037D8002DE9F04F00EB411506460F468FB02946FC
:1037E8001046144600F048FD18B928460FB0BDE849
:1037F800F08F2046A04900F03FFD002800F0BD8072
:1038080020469E4900F038FD002800F0AF8023785C
:10381800432B00F0B780613B192B13D86378613BC9
:10382800192B0FD8A278A2F16103192B96BFE27861
:10383800A31CE31C5F2A0AD02E2A00F0BD8212F0D6
:10384800BF0F0FD0002528460FB0BDE8F08F5A787B
:10385800413A192AF6D89A78413A192AF2D8DA78E8
:103868000333E9E7864906A8019300F0E3FD019BCD
:103878000DF118081A78402A00F08D824FF00009DF
:103888004FF0000A4FF0000B9DF81830413B342BE5
:10389800D8D801A252F823F0173D00084D38000887
:1038A800B93C00084D3800087D3C00084D38000838
:1038B800493C00084D380008A93B0008893B00082E
:1038C800C93A00084D3800084D3800084D3800083E
:1038D8004D380008693A00084D3800084D3800088E
:1038E800493A00080D3A0008BF3900084D38000869
:1038F8004D3800084D3800084D3800084D3800088C
:103908004D3800084D3800084D3800084D3800087B
:103918004D3800084D380008173D00084D3800089C
:10392800B93C00084D3800087D3C00084D380008B7
:10393800493C00084D380008A93B0008893B0008AD
:10394800C93A00084D3800084D3800084D380008BD
:103958004D380008693A00084D3800084D3800080D
:10396800493A00080D3A0008BF390008454906A839
:103978000DF1180800F05EFD80E720463F4900F091
:1039880059FD3DE763782D3B012B3FF65BAFA11C4A
:103998000DF118084046894600F04CFD402140468C
:1039A80004F08CF808B100230370404600F0E0FDF5
:1039B80009EB00035EE74046334904F025F830B1CF
:1039C8004046324904F020F800287FF43BAF4046D7
:1039D8002D4900F02FFD06232D4A01932D4B022F70
:1039E80000F0B081062F04D1414606F2322000F0E3
:1039F80021FD2146284600F01DFD054628460FB04A
:103A0800BDE8F08F03224046234904F0D3F800288C
:103A18007FF418AF9DF81B3020492D2B14BF0DF1F2
:103A28001B0007A800F028FC00287FF40BAF4046D5
:103A38001B4900F0FFFC01231A4A01931A4BCEE7F9
:103A480040461A4903F0E0FF00287FF4FBAE4046E9
:103A5800164900F0EFFC0223154A0193154BBEE707
:103A68004046154903F0D0FF00287FF4EBAE4046EE
:103A7800124900F0DFFCDEE7ACAB0008B4AB00088D
:103A8800C0AB0008B8AB0008ECAB0008F4AB00080A
:103A980045720008E16000087CAC000880AC0008B2
:103AA80084AC000825720008B560000810AC000856
:103AB800ED720008196300086CAC000874AC0008CB
:103AC80004224046BD4904F075F800287FF4BAAED8
:103AD8009DF81C302D2B06BF9DF81D300DF11D02E1
:103AE80007AA522B00F029811378543B212B3FF66B
:103AF800A9AE01A252F823F0393D00082F3D000875
:103B08004D3800084D3800084D3800084D38000879
:103B18004D3800084D3800084D3800084D38000869
:103B28004D3800084D3800084D3800084D38000859
:103B38004D3800084D3800084D3800084D38000849
:103B48004D3800084D3800084D3800084D38000839
:103B58004D3800084D3800084D3800084D38000829
:103B68004D3800084D3800084D3800084D38000819
:103B7800433D00084D380008393D00082F3D000836
:103B880040468F4903F040FF00287FF45BAE404673
:103B98008B4900F04FFC08238A4A01938A4B1EE7A1
:103BA80003224046894904F005F800287FF44AAE0C
:103BB8009DF81B3004222D2B14BF0DF11B0307ABFE
:103BC80018468349019303F0F5FF00287FF43AAEC5
:103BD800019B05A91A792D2A18BF181D4FF00A0252
:103BE80008BF581D03F002FB421E0F2A3FF62AAEFB
:103BF8000C283FF427AE059A1278002A7FF422AEEB
:103C080074490190404600F015FC019B72480A2B4C
:103C1800C4BF31228DF821204FF00002CCBF0DF136
:103C280022010DF121014A7080FB0320DA17C2EB53
:103C3800A00202EB8202A3EB420330330B70FAE6D8
:103C480008224046654903F0B5FF00287FF4FAAD25
:103C58009DF8203062492D2B14BF08A80DF12100D2
:103C680003F0D2FE00287FF4EDAD40465D4900F038
:103C7800E1FBE0E6032240465B4903F09BFF002896
:103C88007FF4E0AD9DF81B3058492D2B14BF0DF182
:103C98001B0007A803F0B8FE00287FF4D3AD404608
:103CA800534900F0C7FB0323524A0193524B96E64F
:103CB8009DF8193003F0DF03502B7FF4C3AD0222C7
:103CC8004E494046FFF724FD0A2205A90DF11A00C6
:103CD80003F08CFA059B1B78002B7FF4B3ADB0F58D
:103CE800697F3FF4B8AE00F3A18040F26A3398428E
:103CF8003FF7A8AD40F25133984240F3AF80404BB4
:103D0800A0F25230C340DB073FF595AE9AE5404636
:103D18003C4903F079FE00287FF494AD40463949C8
:103D280000F088FB87E64046374900F083FB82E6CF
:103D38004046364900F07EFB7DE64046344900F0B7
:103D480079FB78E6414606F21220CDE9022300F01D
:103D580071FB029A039B019F41463046C6F8C82171
:103D6800C6F8CC3186F8107203F0D8FBB9F1000F11
:103D78000BD1BAF1000F08D1012F06D09DF81830E9
:103D8800B3F1550918BF4FF00109BBF1000F0ED16F
:103D9800C6F8D0912DE61F49581C03F1010B00F01D
:103DA8006BFA8246C0BB81464FF0010B6CE54FF0C1
:103DB800FF33C6F8D0311CE6591CE9E534AC0008DD
:103DC800FCAB0008B97300089164000818AC00083F
:103DD8001CAC000824AC00086766666654AC000892
:103DE80060AC000864AC000800AC000804AC000833
:103DF80008AC000845730008B563000830AC00083B
:103E0800A5110101B8AB000844AC00084CAC00088F
:103E18003CAC0008CCAB000858461B4900F02CFA13
:103E2800814670B983464FF0010A2DE540F265439B
:103E380098423FF400AEA0F2E24008287FF6FBADBE
:103E480000E55846114900F017FAB0FA80F94FF02A
:103E5800000A4FF0000B4FEA591915E540F2E1232B
:103E680098423FF4E8AD09DC40F2B51398423FF4BC
:103E7800E2ADB0F5347F7FF4E5ACDCE540F2073322
:103E880098427FF4DFACD6E5D8AB0008E4AB000875
:103E980038B50D460E49044601F034FE08B10378E2
:103EA80093B90C4B204653F8251001F02BFE08B1AE
:103EB80003784BB92046084901F024FE28B102785E
:103EC800064B002A08BF184638BD044838BD00BF55
:103ED8008CAC000874B0000894AC0008680400209A
:103EE8002DE9F04F062983B0009067D88A46164618
:103EF800002A00F0A4807D4F7D4D07F120094C4633
:103F0800AB4607F1E00859462046203400F092FA03
:103F180044450BF1200BF6D13378ABBBBAF1000F57
:103F280040F092804E46012421460098FFF7B0FFEA
:103F3800074600F01DFB1F2840D83046394601349B
:103F480000F078FA072C06F12006EDD1DFF8A481FD
:103F58004F46464601242946304600F06BFA3A4659
:103F680021466548FFF734FC2036203520370028E5
:103F78007AD00134072CEED16049A1F1E00003B0FA
:103F8800BDE8F04FFFF7FCBBBAF1000F1ED030467A
:103F980000F0EEFA1F2811D807EB4A1731463846C9
:103FA80000F048FA51463A465348FFF711FC534986
:103FB8000446A1F1E000FFF7E3FB03E01626002426
:103FC800009B1E60204603B0BDE8F08F2F213046CD
:103FD80003F074FD044600286AD042782F2A08BFEF
:103FE800431C04D11C4613F8012F2F2AFAD0002AAB
:103FF800E4D04B464FF0010AA21B1F2ADEDC18460C
:1040080001323146019303F0C1FD2278019B2F2A2A
:104018000AF1010A03D114F8012F2F2AFBD0002A34
:1040280054D0214611F8012F0AB12F2AFAD1BAF13A
:10403800070F03F1200389D026460C46DCE7A9B315
:104048002D4C04EB4114BDE751460098FFF720FFC3
:10405800044600F08DFA1F28B0D807EB4A1721460E
:10406800384600F0E7F99DE7009B012C1E68A6D0B2
:10407800012506E00135A54209F1200908F12008CB
:104088009DD04146484600F0D5F94A4629461A4887
:10409800FFF79EFB0028EDD14846194900F0CAF900
:1040A8004A4629461448FFF793FBE3E7134C89E790
:1040B800304600F05DFA1F2880D84C46204631462D
:1040C800203400F0B7F94445F8D13FE7BAF1070FBB
:1040D80018BF07EB4A173FF439AF3846A7F120015C
:1040E800203700F0A7F94745F7D12FE7480B002004
:1040F80034020020880A002014020020F402002064
:10410800B4AB0008014B93F810027047140200206A
:1041180003460A46024908681946FFF7E1BE00BF90
:104128000000002000F5EC70704700BF00487047A1
:10413800EC03002000487047EC03002038B500234A
:10414800064C05460846236005F0BEFE431C00D019
:1041580038BD2368002BFBD02B6038BD2C0C002009
:10416800194B1B6883422ED0416C70B5054681B14E
:1041780000268C593CB121462468284601F07EFB74
:10418800002CF8D1696C0436802EF2D1284601F053
:1041980075FBA96B11B1284601F070FB2C6C34B18A
:1041A80021462468284601F069FB002CF8D1E96C07
:1041B80011B1284601F062FB6B6B1BB12846BDE8C4
:1041C8007040184770BD7047000000208C461146AB
:1041D800002238B5074C0546226060461A4605F0AD
:1041E8009BFE431C00D038BD2368002BFBD02B60FE
:1041F80038BD00BF2C0C00208C461146002238B573
:10420800074C0546226060461A4605F08DFE431CA1
:1042180000D038BD2368002BFBD02B6038BD00BF11
:104228002C0C00208C461146002238B5074C054658
:10423800226060461A4605F08DFE431C00D038BD4A
:104248002368002BFBD02B6038BD00BF2C0C00204E
:10425800704700BF704700BF704700BF704700BF7E
:10426800704700BF704700BF0120704701207047AA
:10427800704700BF704700BF80EA010C1CF0030FB5
:1042880037D110F0030C20F0030021F0030150F89F
:10429800042B08BF51F8043B0ED08CF0030C6FF0D0
:1042A8007F434FEACC0C23FA0CFC51F8043B42EA5A
:1042B8000C0243EA0C0300BFA2F1013C9A4201BF81
:1042C8002CEA020C1CF0803F50F8042B51F8043BF8
:1042D800F2D04FEA02604FEA1222012828BFB0EB61
:1042E800036F08BF1B0AF4D003F0FF03000EC01AC7
:1042F800704710F0030F0AD010F8012B11F8013B9A
:10430800012A28BF9A42F4D0A2EB0300704720B4D8
:1043180050F8042B01F0030521F0030151F8043B88
:10432800022D27D04ED800BF22F07F45B5EB132FC2
:10433800A2F1013C2CEA020C0DD11CF0803C08BF14
:1043480051F8043B0AD185EA0205B5EB036F0CD19D
:1043580050F8042BE8E74FEA13235BE03CF07F4C6E
:1043680054D10B784FEA126554E04FEA126503F016
:10437800FF034FE04FEA0245A2F1013C4FEA154521
:104388002CEA020CB5EB134F18D11CF0803C08BF87
:1043980051F8043B07D185EA0205B5EB034F09D173
:1043A80050F8042BE6E75FEA0C4C2FD10B884FEA54
:1043B80012452FE04FEA03434FEA12454FEA1343F1
:1043C80028E000BF02F0FF05B5EB136FA2F1013C36
:1043D8002CEA020C0DD11CF0803C08BF51F8043BBC
:1043E8000AD185EA0205B5EB032F0AD150F8042B50
:1043F800E8E74FEA13630DE012F0FF0F06D051F81B
:10440800043B4FEA122523F07F4303E04FF00000FE
:1044180020BC704705F0FF0203F0FF00012828BF09
:10442800904204BF2D0A1B0AF4D0A2EB000020BC66
:10443800704700BF80EA0102844612F0030F4FD193
:1044480011F0030F32D14DF8044D11F0040F51F85B
:10445800043B0BD0A3F101329A4312F0803F04BF12
:104468004CF8043B51F8043B16D100BF51F8044BFB
:10447800A3F101329A4312F0803FA4F101320BD12B
:104488004CF8043BA24312F0803F04BF51F8043BB0
:104498004CF8044BEAD023460CF8013B13F0FF0F0D
:1044A8004FEA3323F8D15DF8044B704711F0010F40
:1044B80006D011F8012B0CF8012B002A08BF704711
:1044C80011F0020FBFD031F8022B12F0FF0F16BF08
:1044D8002CF8022B8CF8002012F47F4FB3D17047D0
:1044E80011F8012B0CF8012B002AF9D1704700BFF5
:1044F8008307C9B20DD00346BAB193F800C0184675
:104508008C4503F1010302F1FF320DD09807F3D176
:104518001846032A0BD842B1024402E00130824215
:1045280003D003788B42F9D170470020704700B55B
:1045380001EB012E0EEB0E4E03688EEA0303A3F186
:10454800013C2CEA030313F0803F05D1043A032A07
:1045580000F10400F0D842B1024402E00130824286
:1045680003D003788B42F9D100BD002000BD00BF05
:1045780020F0030110F00300C0F1000051F8043BE3
:1045880000F1040C4FEACC0C6FF000021CBF22FAB9
:104598000CF213434FF0010C4CEA0C2C4CEA0C4C77
:1045A800A3EB0C0222EA030212EACC1204BF51F870
:1045B800043B0430F4D0C2F1000102EA0102B2FA6D
:1045C80082F2C2F11F0200EBD20070472DE9784851
:1045D80015460024144E21F0004CB44502460B4603
:1045E8002C601DD85CEA00061AD02E460F4D8E4668
:1045F8000D404DB900220E4B05F09CFF6FF03504BD
:1046080002468E4621F0004C4FEA2C516FF31E5E95
:10461800A1F2FE3121444EF07F53316043F4001380
:1046280010461946BDE87888FFFFEF7F0000F07F4D
:10463800000050432DE9F04F03690C6985B0A3428F
:10464800C0F28F80013C01F1140500F1140855F8FF
:104658002430864658F8240001339842B0FBF3F61C
:1046680005EB840708EB840A42D3A9460195CDF8E7
:1046780008E00391002349460025A646C1464FEAB3
:10468800840B51F8040BD9F8004082B206FB02559E
:10469800000C4FEA154C06FB00CCADB2A2B2521B7F
:1046A8001A441FFA8CF3C3EB224303EB144392B270
:1046B80042EA03428F4249F8042B4FEA1C454FEA6D
:1046C8002343DED258F80B307446DDE902E1019D40
:1046D80073B9AAF10403984504D307E0984504F197
:1046E800FF3403D21A68043B002AF7D0CEF81040F2
:1046F8007046F14602F074FA00282EDB414600228B
:10470800013655F8040BD1F800C01FFA80FE1FFAD5
:104718008CF3A3EB0E031344020CC2EB234202EB0F
:104728001C429BB243EA0243AF4241F8043B4FEAC2
:104738002242E6D258F8242008EB84036AB9043BE5
:10474800984504D307E0984504F1FF3403D21A686A
:10475800043B002AF7D0C9F81040304605B0BDE840
:10476800F08F002005B0BDE8F08F00BF000000000A
:104778002DE9F04F16461F46816BA1B00446CDE9DE
:1047880004672D9D41B10123C26B93408B604A6041
:1047980001F04CFF0023A363B7F10009B4BF012364
:1047A80000232B60B64BBCBF29F00049CDF814900C
:1047B80033EA090300F0A580DDE904231046194611
:1047C80000220023CDE9020106F01CF9054668B174
:1047D80001232C9A13602E9B13B1AA4B2E9A1360B7
:1047E800A94B0793079821B0BDE8F08F1EAB019342
:1047F8001FAB00932046DDE9022302F055FB5FEA78
:1048080019538346DDF8788040F091801F9D454418
:1048180005F23243202B40F33182C3F1400309FAF9
:1048280003F905F2124326FA03F349EA030005F0F7
:1048380007FE0123013D1093A1F1F87319460022E8
:10484800924B05F0BFFC88A3D3E9002305F072FE64
:1048580087A3D3E9002305F0B7FC064628460F4690
:1048680005F0FEFD84A3D3E9002305F063FE0246AC
:104878000B463046394605F0A7FC06460F4606F0BB
:1048880009F9002281460A9000233046394606F08D
:10489800C3F8002840F019810A9EA8EB050808F122
:1048A800FF35162E089500F2FB80DDE90201784AF3
:1048B80002EBC603D3E9002306F0AEF8002840F067
:1048C800D78180450E9040F39A85354408950D961A
:1048D8000B9000230C932A9B092B3BD8052BC4BFB4
:1048E800043B2A932A9BC8BF0025A3F10203D8BF23
:1048F8000125032B30D8DFE813F0370234022902F0
:10490800CA0142F20F732C9AC9F3130959EA06092E
:10491800136018D12E9B002B00F03D875D4B079349
:1049280008332E9A0798136021B0BDE8F08F1095D0
:10493800DDE90201A3F2FF35C1F3130343F07F530E
:1049480043F440137AE72E9B002B40F09C81524B96
:10495800079347E700232A93002520462946E56365
:1049680001F03EFE0790002800F0B686079BA3637F
:104978001F9B002BC0F2B7800A9A0E2A00F3B3805F
:10498800DDE90289424B404603EBC203D3E9002329
:1049980016461F464946CDE9086705F0F5FE06F0BC
:1049A80079F8054605F05CFD32463B4605F0C2FD48
:1049B8004FF0FF3A0B4602464946404605F002FCD6
:1049C80005F13003079D05F8013BCDF808B00494C4
:1049D8004FF001095446DDE908AB1DE052465B463D
:1049E8003046394605F0D0FE06F054F8804605F00A
:1049F80037FD52465B4605F09DFD09F101090B465E
:104A080002463946304605F0DDFB08F13003A14582
:104A180005F8013B00F062850022204B05F08AFD75
:104A28000022002306460F4605F0ECFF0028D5D0EB
:104A3800A9460A9BDDF808B00133049C0493594643
:104A4800204601F0F3FD0023049A89F800302C9BDE
:104A58001A602E9B002B3FF4C5AE0798C3F8009050
:104A680021B0BDE8F08F00BF61436F63A787D23FD5
:104A7800B3C8608B288AC63FFB799F501344D33F45
:104A88000000F07FA5AB0008A4AB00080000F83FC9
:104A980080B10008E4AC0008F0AC00080000244035
:104AA80001230E93089B002BC0F2DC8000230B939C
:104AB8000A9B002B80F2D180DDE90A32D21A0B92D0
:104AC80000225B420D920C9305E7484605F0C8FCAE
:104AD80032463B4605F096FF00287FF4DDAE09F12B
:104AE800FF330A93D8E64FF0FF3A2B95CDF83CA058
:104AF800109A002A40F03B811E9BDDF83080C3F1FC
:104B08003603089A0B9F1A44012120460892FD1883
:104B180001F0A4FE0646002F40F0C0820C9B002B3B
:104B280000F0F783B8F1000F40F0DC8359462046C7
:104B38000C9A01F085FF012383460C93012120463E
:104B480001F08CFE0D9B0290002B40F060822A9BA6
:104B5800012B40F3CA820120089B184410F01F0063
:104B680000F00A811B2800F3DA820B9AC0F11C00BE
:104B78000244034405440B920893002D05DD594671
:104B88002A46204601F0B8FF8346089B002B05DD26
:104B98001A462046029901F0AFFF02900E9B002BA7
:104BA80040F01782BAF1000F40F3ED810C9B002B07
:104BB80040F031810A9B013304930125079FDDF8FA
:104BC800089007E0594600230A22204601F038FDE4
:104BD8008346013549465846FFF72CFD554500F1F7
:104BE800300807F8018BEDDBBAF1000F0AF1FF3549
:104BF800D8BF0025079B5A1C05EB020A0025594619
:104C08000122204601F078FF0299834601F0E8FF6F
:104C1800002840F38183079A02E0924500F0B983A7
:104C28001AF8013CD146392B0AF1FF3AF5D0013385
:104C38008AF800302046029901F0F8FC002E3FF473
:104C4800FEAE2DB1B54203D02946204601F0EEFC58
:104C58003146204601F0EAFCF1E6089A0D931A4421
:104C6800089236E6C8F101030B93002308931FE767
:104C78000A9B013B0A9300230E9313E7C3F1200319
:104C880006FA03F0D3E5AD4B0793033349E6012356
:104C980012932B9B0A9A134403F1010A5646012EDC
:104CA800B8BF01260F93172E40F36685012204230F
:104CB8005B0003F11400B042114602F10102F7D97A
:104CC800E163204601F08CFC0790002800F0048581
:104CD800BAF10E0FA06358D8002D56D00A9A002AB0
:104CE80040F35E83964902F00F0301EBC303D60538
:104CF8004FEA2215D3E9008940F11184DDE9020168
:104D0800904B0327D3E9082305F03EFDCDE91401B4
:104D180005F00F05002D00F024828A4E01E06D1089
:104D28000836E80703D46D100836E907F7D5D6E941
:104D380000234046494605F0FDFB6D108046894634
:104D480007F1010700F00D820836EEE70123129300
:104D58002B9B002B40F3B2812B9B9A461E460F9348
:104D6800A1E70023129394E700231293F0E7DDF8FC
:104D7800308003F23343C4E61C200B9B05440344F4
:104D88000B93089B03440893F7E61F9B002BC0F284
:104D980054810A9A0E2A00F35081694B1C930A9A8F
:104DA8001C9B03EBC203D3E90023CDE908232B9B0B
:104DB800002B80F2BB83BAF1000F00F3B78340F0F9
:104DC800DD82DDE9080100225F4B05F0B3FB0246F6
:104DD8000B46DDE9020105F029FE5146002840F0A6
:104DE800CE823123DDF81C9009F8013B204601F002
:104DF8001DFC0A9B0233049321E6314600230A2254
:104E0800204601F01DFC0F9B0646002B40F3AD84A5
:104E1800DDF83CA00A950B9B002B05DD31461A46B0
:104E2800204601F069FE06460D9B002B40F03F83AB
:104E38003746079B1D46013B53440C93049B03F0E4
:104E480001030D9302995846FFF7F4FB3146824659
:104E5800584601F0C5FE029981463A46204601F0BF
:104E6800DFFEC36801460AF13008002B36D10B90EB
:104E7800584601F0B5FE0B990890204601F0D6FB84
:104E8800089A002A62D12A9B1BB90D9B002B00F0BF
:104E98005484B9F1000F42DBAA460C9B0AF8018B37
:104EA8009D4200F06683594600230A22204601F0FD
:104EB800C7FBBE42834631464FF000034FF00A025B
:104EC800204635D001F0BCFB394600230A220646AD
:104ED800204601F0B5FB55460746B3E7204601F0EA
:104EE800A5FBB9F1000F08DB049B03F001022A9B24
:104EF80049EA030952EA090236D1594601222046F5
:104F080001F0FAFD0299834601F06AFE002840F399
:104F1800EE83B8F1390F00F0CB830AF13108A946C6
:104F28000A9B354601333E46049309F8018B81E616
:104F380001F086FB55460646074683E7F0AC0008B5
:104F480080B1000858B1000800001440B9F1000F02
:104F5800C0F225842A9B49EA03090D9B53EA0909F3
:104F680000F01D84002A97DDB8F1390F00F0A08306
:104F7800A9460A9A08F101030132354604923E46D1
:104F880009F8013B56E62A9B022B7FF70FAEBAF1D0
:104F9800000F40F05F82534605220299204601F037
:104FA8004FFB01460290584601F01AFE504540F367
:104FB80051823123DDF81C90204609F8013B029903
:104FC80001F034FB0A9B02330493002E7FF440AEB9
:104FD80035E55846029901F003FE0028BFF6E2AD18
:104FE800594600230A2220460A9D01F029FB0C9B02
:104FF8008346013D002B7FF400AF0F9B002B40F34D
:10500800A7830A9BDDF83CA004930A95D5E51A46C8
:105018000146204601F014FD2A9B0290012B40F323
:10502800398200230D93029A136902EB83031869EE
:1050380001F0ACFBC0F120008EE5129AAAB90B9BD7
:10504800002B72D10C9B002B40F081801D461E4620
:1050580074E51F9BDDF858B0002BDDF860A0149CA8
:1050680003DB0A9A0E2A7FF79AAE2A9A012A7FF75B
:105078003FAD0C9B0AF1FF37BB42C0F2C881BAF1C1
:10508800000FA3EB070880F26083012120460B9DE7
:1050980001F0E4FB0646A5EB0A070B97089B002BDB
:1050A8007FF73CAD0B9908980B468142A8BF034691
:1050B800CA1AED1AC31A0B9208932FE5002120464D
:1050C800E16301F08DFA0790002800F00583079B43
:1050D800A363002D40F0CC811F9BAB42C0F2268316
:1050E800012292460F922B9253E6049B002B7FF4E9
:1050F80032AD059BC3F31303002B7FF42CAD059B46
:1051080023F000431B0D1B05002B3FF424AD089B27
:10511800013501330893012318460D931CE51C281B
:105128003FF42BADC0F13C0027E6089B002B00F0B4
:1051380090820B9908980B468142A8BF03460C9EA3
:10514800CD1AC31A08930B95002E3FF4F7AC5946B5
:1051580020460C9A01F074FC002683460C960B9DA1
:10516800ECE44246DDE914014B4605F00DFB8046B0
:1051780089460E9B43B1002240464946BE4B05F086
:105188004BFC002840F06E82384605F069F942462B
:105198004B4605F0CFF90022B84B05F015F8054647
:1051A800A1F15076BAF1000F00F0CF800A9BCDF83C
:1051B80050A01D93B24B14991C9303EBC10353E900
:1051C80002124046CDE91A124946CDE9185605F0B3
:1051D80061FC00F1300605F043F902460B464046F3
:1051E800494604F0EFFF89468046079B12995D1CEB
:1051F8002F46DDE91A23CDE91689002900F0C08180
:105208000020A04905F0C0FADDE9182304F0DAFF10
:1052180002460B46DDF81CC0CDE912238CF800606D
:1052280042464B4605F016FC002840F0A982DDE90D
:105238001667A846CDF860A08146DDF850A0CDF8E5
:1052480058B01494DDE912452BE009F10109D14564
:10525800BFF6FFAE2046294600228B4B05F06AF9BF
:105268000022894B04460D463046394605F062F95E
:105278000F46064605F00EFC00F1300B05F0F0F87D
:1052880002460B463046394604F09CFF22462B4620
:1052980008F801BB06460F4605F0BEFB002840F0A3
:1052A8003C8232463B460020734904F08BFF22467D
:1052B8002B4605F0B1FB0028C7D01D9E4546DDF8FA
:1052C80058B0149C079A013602E0954200F0ED812F
:1052D800A94615F8013D392BF7D001332B700496F8
:1052E800FFF7ADBB31464246204601F0A9FB064612
:1052F8005A463146204601F0DFFA0746594620460D
:1053080001F094F90C9BBB46B3EB08030C937FF4B4
:105318000DAC01230C9311E403D118F0010F7FF4B5
:105328007AACD1461AF8013D302BFAD082E43846DF
:1053380005F096F842464B4605F0FCF800224F4B24
:1053480004F042FF0546A1F1507640464946002246
:105358004E4B04F037FF2A4633468046894605F00F
:1053680079FB002840F0B081404649462A4606F1BC
:10537800004305F051FB00283FF407AD002120460B
:1053880001F054F92B9BDDF81C905B420493FFF766
:1053980056BB0A9B079A023304933123137049E4DE
:1053A80000F05C81DDE902010A9B354A5D4205F0A7
:1053B8000F0302EBC303D3E9002305F0BBF82D115B
:1053C800804689464FF002073FF4D3AE304E01E0E5
:1053D8006D100836EA0703D46D100836EB07F7D5C9
:1053E800D6E900234046494605F0A4F86D108046EA
:1053F800894607F101073FF4BCAE0836EEE7C8F16D
:1054080001030B930A9B08930D93FFF762BA0C9B59
:105418000D9AFB1A1A44089B012153442046DDF8D3
:105428002C800D92089301F019FA08EB0A0506463C
:105438000C97B8F1000F3FF479AB0B9908980B461D
:105448008142A8BF0346CA1AED1AC31A0B920893E1
:10545800FFF76CBB2046029901F0E8F82B9BDDF8BA
:105468001C905B420493002E7FF4F2ABFFF7E7BA7F
:10547800AA460F952B9531E40000F03F00001C4030
:1054880080B100080000E03F000024400000144004
:1054980058B10008049B002B7FF4C3ADDDE904126A
:1054A800C2F31303002B00F029810D91BBE52046C0
:1054B800716801F095F80546002800F07581336998
:1054C80006F10C0102339A000C3002F001FC0122B3
:1054D8002946204601F010FB0746AAE4DDF808B08B
:1054E800049C02460B4604F06FFE0A9B814601337A
:1054F8001E460493DDE908238A4605F0ABFA48B94D
:10550800DDE908234846514605F07CFA20B118F039
:10551800010F01D0079ADBE6A946FFF790BADDE94B
:1055280002230227CDE91423FFF7F4BB079B5F1C76
:10553800DDE90256DDE908232846314605F024F95D
:1055480005F0A8FA804604F08BFFDDE9082304F093
:10555800F1FF02460B462846314604F033FE079A0F
:1055680008F13003BAF1010F3D4613707FF42DAAFC
:10557800B7E70A9B354601333E460493FFF73FBB26
:10558800DDE9180104F0D6FF079BCDE910011E7074
:10559800149B012B27D0DDE91601CDF848B0A846A9
:1055A800AB46079B149A03EB02090022824B04F0D6
:1055B800C1FF0F46064605F06DFA00F1300504F00C
:1055C8004FFF02460B463046394604F0FBFD08F80B
:1055D800015BC845E9D15F46149BCDE916017D1EE4
:1055E800DDF848B01D440022DDE91001734B04F0DA
:1055F800EBFDDDE9168942464B4605F00DFA002819
:1056080071D1DDE9102300206C4904F0DBFD42462E
:105618004B4605F01FFA80B91F9B8342FFF60FAD7A
:105628000A9B0E2B3FF70BAD1C9B0A9A03EBC20695
:10563800D6E90023CDE908237AE715F8013CA94605
:10564800302B05F1FF35F8D01D9B01330493FFF78C
:10565800F6B90C9E002E7FF47AAD80E50227DDE9CD
:10566800028986E5BAF1000F3FF461AE0F9D002D67
:105678007FF78BAB0A9B0022013B404649461D93AE
:105688004D4B04F057FF80468946781C04F0E8FE2D
:1056980042464B4604F04EFF0022494B04F094FD6D
:1056A8001495A1F15076054684E53123013615E6B7
:1056B800AA4639230AF8013B0A9B354601333E4680
:1056C800079A0493FFF7ACBA3123DDF81C90002148
:1056D80009F8013BFFF78ABB002240F2AF11394BB2
:1056E800394802F06BFB1D9E079A0136F0E57FF4FE
:1056F80016AC18F0010F7FF40CAC10E4059B23F0F6
:1057080000431B0D1B05002B3FF48CAC089B013597
:105718000133089301230D9385E41D9BC146013392
:10572800DDF858B0149C0493FFF789B9129B6BBB42
:1057380001239A460F932B9381E4B8F1390FB7D020
:1057480091453FF7EAABFFF7EABB5346FFF7D9B9F4
:105758002A9A022A05DC0A9A9A4604920A95FFF7C1
:105768002CBA0A95DDF83CA011E42A9A0A95022A77
:10577800F8DC9A46FFF74FBB0021E163FFF7A1BAB7
:105788001D9BA94601330493FFF759B9129B9A460A
:105798002B930F936DE40D4B0793FFF723B8002A63
:1057A8003FF7ABABFFF7BBBB024640F2EF21054B1F
:1057B800054802F003FB00BF000024400000E03F62
:1057C80000001C40F4AC000808AD0008E4AC000878
:1057D800F8B5064608200C4602F06CFA0746304633
:1057E80000F0F2FE224A93685D6825F00305A5F1F2
:1057F80011031C1B3C44B4FBF7F4013C07FB04F405
:10580800A74208DC0021304602F03CFA184A9368A7
:105818002B44984204D0304600F0DCFE0020F8BD4E
:105828003046614202F02EFA0130114A0DD011497A
:1058380093682D1B45F001055D600B6830461B1B06
:105848000B6000F0C7FE0120F8BD0021304602F0D1
:1058580019FA074A9268831A0F2BDCDD43F001031B
:105868005360054B03491B68C01A0860D3E700BFA3
:1058780090040020500C002088040020002960D0EB
:105888002DE9F0410C46074600F09EFE54F804EC62
:105898007949A4F1080C2EF001030CEB03028D6882
:1058A8005068954220F0030000F08780506015187A
:1058B8006D6805F001060EF001058DBB54F8084C23
:1058C80001F1080EACEB040C2344DCF808407445E5
:1058D80066D0DCF80C50E560AC60002E00F08A80E1
:1058E80043F00100CCF804001360B3F5007F32D216
:1058F8005809DA08012383404868013203434B60A2
:1059080051F8320001EBC203083BCCE9020341F82D
:1059180032C0C0F80CC03846BDE8F04100F05ABEAD
:1059280086B9034401F1080E906843F001047045FC
:1059380079D0D268C2609060CCF804404CF803304B
:10594800D3E770474EF00102B3F5007F44F8042C0A
:105958004CF80330CCD3B3F5206F4FEA53224BD227
:105968009A0902F1390002F13804C20088188A58ED
:105978000838904203D15FE09268904204D05168A1
:1059880021F003019942F7D8D068CCE90220C0F889
:1059980008C03846BDE8F041C2F80CC000F01ABE95
:1059A800AEBB1844D2E90223D3609A6040F00103E9
:1059B800CCF804304CF80000ADE718440EF00103B1
:1059C80043B954F8083CACEB030C1844DCE9022357
:1059D800D3609A6040F00103CCF80430274BC1F83B
:1059E80008C01B68834296D8254B38461968FFF7CC
:1059F800EFFE90E7034497E7142A0ED9542A22D8D9
:105A08001A0B02F16F0002F16E04C200AEE743F018
:105A18000101CCF8041013607DE702F15C0002F18B
:105A28005B04C200A2E7C1E904CCCCE902EECCF8E1
:105A380004404CF803306EE70123A410A3404C68DF
:105A480023434B60A1E7B2F5AA7F06D8DA0B02F12F
:105A5800780002F17704C20088E740F2545082428D
:105A680006D89A0C02F17D0002F17C04C2007DE7A1
:105A78004FF47E727E2479E7900400208C04002085
:105A8800800C00202DE9F0431D4F83B080460E4660
:105A9800914602F0F7F93D684DB133781C4673B171
:105AA800344602E014F8013F43B13D2BFAD1404699
:105AB80002F0EEF9002003B0BDE8F083A41B2868CB
:105AC8000028F4D02246314602F0A0F820B92B680D
